{
  "_format": "hh-sol-artifact-1",
  "contractName": "TestPetDNAMatching",
  "sourceName": "contracts/TestPetDNAMatching.sol",
  "abi": [
    {
      "inputs": [],
      "stateMutability": "nonpayable",
      "type": "constructor"
    },
    {
      "anonymous": false,
      "inputs": [
        {
          "indexed": true,
          "internalType": "uint256",
          "name": "petId1",
          "type": "uint256"
        },
        {
          "indexed": true,
          "internalType": "uint256",
          "name": "petId2",
          "type": "uint256"
        },
        {
          "indexed": false,
          "internalType": "uint8",
          "name": "compatibilityScore",
          "type": "uint8"
        }
      ],
      "name": "MatchingCompleted",
      "type": "event"
    },
    {
      "anonymous": false,
      "inputs": [
        {
          "indexed": true,
          "internalType": "uint256",
          "name": "petId",
          "type": "uint256"
        },
        {
          "indexed": true,
          "internalType": "address",
          "name": "owner",
          "type": "address"
        },
        {
          "indexed": false,
          "internalType": "string",
          "name": "name",
          "type": "string"
        }
      ],
      "name": "PetRegistered",
      "type": "event"
    },
    {
      "inputs": [
        {
          "internalType": "uint256",
          "name": "_petId1",
          "type": "uint256"
        },
        {
          "internalType": "uint256",
          "name": "_petId2",
          "type": "uint256"
        }
      ],
      "name": "checkCompatibility",
      "outputs": [
        {
          "internalType": "bool",
          "name": "compatible",
          "type": "bool"
        }
      ],
      "stateMutability": "nonpayable",
      "type": "function"
    },
    {
      "inputs": [
        {
          "internalType": "address",
          "name": "_owner",
          "type": "address"
        }
      ],
      "name": "getOwnerPets",
      "outputs": [
        {
          "internalType": "uint256[]",
          "name": "",
          "type": "uint256[]"
        }
      ],
      "stateMutability": "view",
      "type": "function"
    },
    {
      "inputs": [
        {
          "internalType": "uint256",
          "name": "_petId",
          "type": "uint256"
        }
      ],
      "name": "getPetDetails",
      "outputs": [
        {
          "internalType": "string",
          "name": "name",
          "type": "string"
        },
        {
          "internalType": "string",
          "name": "breed",
          "type": "string"
        },
        {
          "internalType": "address",
          "name": "petOwner",
          "type": "address"
        },
        {
          "internalType": "bool",
          "name": "availableForBreeding",
          "type": "bool"
        },
        {
          "internalType": "uint8",
          "name": "healthScore",
          "type": "uint8"
        },
        {
          "internalType": "uint16",
          "name": "geneticMarker",
          "type": "uint16"
        }
      ],
      "stateMutability": "view",
      "type": "function"
    },
    {
      "inputs": [
        {
          "internalType": "uint256",
          "name": "_petId",
          "type": "uint256"
        }
      ],
      "name": "getPetInfo",
      "outputs": [
        {
          "internalType": "string",
          "name": "name",
          "type": "string"
        },
        {
          "internalType": "string",
          "name": "breed",
          "type": "string"
        },
        {
          "internalType": "address",
          "name": "petOwner",
          "type": "address"
        },
        {
          "internalType": "bool",
          "name": "availableForBreeding",
          "type": "bool"
        }
      ],
      "stateMutability": "view",
      "type": "function"
    },
    {
      "inputs": [],
      "name": "getTotalPets",
      "outputs": [
        {
          "internalType": "uint256",
          "name": "",
          "type": "uint256"
        }
      ],
      "stateMutability": "view",
      "type": "function"
    },
    {
      "inputs": [],
      "name": "matchingCost",
      "outputs": [
        {
          "internalType": "uint256",
          "name": "",
          "type": "uint256"
        }
      ],
      "stateMutability": "view",
      "type": "function"
    },
    {
      "inputs": [],
      "name": "nextPetId",
      "outputs": [
        {
          "internalType": "uint256",
          "name": "",
          "type": "uint256"
        }
      ],
      "stateMutability": "view",
      "type": "function"
    },
    {
      "inputs": [],
      "name": "owner",
      "outputs": [
        {
          "internalType": "address",
          "name": "",
          "type": "address"
        }
      ],
      "stateMutability": "view",
      "type": "function"
    },
    {
      "inputs": [
        {
          "internalType": "address",
          "name": "",
          "type": "address"
        },
        {
          "internalType": "uint256",
          "name": "",
          "type": "uint256"
        }
      ],
      "name": "ownerToPets",
      "outputs": [
        {
          "internalType": "uint256",
          "name": "",
          "type": "uint256"
        }
      ],
      "stateMutability": "view",
      "type": "function"
    },
    {
      "inputs": [
        {
          "internalType": "uint256",
          "name": "",
          "type": "uint256"
        },
        {
          "internalType": "uint256",
          "name": "",
          "type": "uint256"
        }
      ],
      "name": "petMatches",
      "outputs": [
        {
          "internalType": "uint256",
          "name": "petId1",
          "type": "uint256"
        },
        {
          "internalType": "uint256",
          "name": "petId2",
          "type": "uint256"
        },
        {
          "internalType": "uint8",
          "name": "compatibilityScore",
          "type": "uint8"
        },
        {
          "internalType": "uint256",
          "name": "matchTime",
          "type": "uint256"
        }
      ],
      "stateMutability": "view",
      "type": "function"
    },
    {
      "inputs": [
        {
          "internalType": "uint256",
          "name": "",
          "type": "uint256"
        }
      ],
      "name": "pets",
      "outputs": [
        {
          "internalType": "uint256",
          "name": "id",
          "type": "uint256"
        },
        {
          "internalType": "address",
          "name": "owner",
          "type": "address"
        },
        {
          "internalType": "string",
          "name": "name",
          "type": "string"
        },
        {
          "internalType": "string",
          "name": "breed",
          "type": "string"
        },
        {
          "internalType": "uint8",
          "name": "healthScore",
          "type": "uint8"
        },
        {
          "internalType": "uint16",
          "name": "geneticMarker",
          "type": "uint16"
        },
        {
          "internalType": "bool",
          "name": "isRegistered",
          "type": "bool"
        },
        {
          "internalType": "bool",
          "name": "availableForBreeding",
          "type": "bool"
        }
      ],
      "stateMutability": "view",
      "type": "function"
    },
    {
      "inputs": [
        {
          "internalType": "string",
          "name": "_name",
          "type": "string"
        },
        {
          "internalType": "string",
          "name": "_breed",
          "type": "string"
        },
        {
          "internalType": "uint8",
          "name": "_healthScore",
          "type": "uint8"
        },
        {
          "internalType": "uint16",
          "name": "_geneticMarker",
          "type": "uint16"
        }
      ],
      "name": "registerPet",
      "outputs": [],
      "stateMutability": "nonpayable",
      "type": "function"
    },
    {
      "inputs": [
        {
          "internalType": "uint256",
          "name": "_petId",
          "type": "uint256"
        },
        {
          "internalType": "bool",
          "name": "_available",
          "type": "bool"
        }
      ],
      "name": "setBreedingStatus",
      "outputs": [],
      "stateMutability": "nonpayable",
      "type": "function"
    },
    {
      "inputs": [
        {
          "internalType": "uint256",
          "name": "_newCost",
          "type": "uint256"
        }
      ],
      "name": "setMatchingCost",
      "outputs": [],
      "stateMutability": "nonpayable",
      "type": "function"
    },
    {
      "inputs": [],
      "name": "withdraw",
      "outputs": [],
      "stateMutability": "nonpayable",
      "type": "function"
    }
  ],
  "bytecode": "0x608060405266038d7ea4c6800060025534801561001b57600080fd5b50600080546001600160a01b0319163317905560018055611485806100416000396000f3fe608060405234801561001057600080fd5b50600436106100f55760003560e01c8063828cd8b111610097578063cfb869bf11610066578063cfb869bf14610217578063d89fd4b41461023e578063d94e8ae214610263578063e0f3270e1461028357600080fd5b8063828cd8b11461018a5780638da5cb5b146101c65780639e0a1b7f146101f1578063c46433581461020457600080fd5b80633ccfd60b116100d35780633ccfd60b1461014e578063403f8cc71461015657806369c3f3161461015f57806380f03fa61461018257600080fd5b806313099c5c146100fa5780632b60b966146101165780632ff8718d1461012b575b600080fd5b61010360025481565b6040519081526020015b60405180910390f35b610129610124366004610f5a565b610296565b005b61013e610139366004610ff0565b610494565b604051901515815260200161010d565b610129610744565b61010360015481565b61017261016d366004611012565b6107cc565b60405161010d9493929190611071565b610103610974565b61019d610198366004610ff0565b610989565b60405161010d9493929190938452602084019290925260ff166040830152606082015260800190565b6000546101d9906001600160a01b031681565b6040516001600160a01b03909116815260200161010d565b6101036101ff3660046110d4565b6109d5565b610129610212366004611012565b610a06565b61022a610225366004611012565b610a56565b60405161010d9897969594939291906110fe565b61025161024c366004611012565b610bc2565b60405161010d9695949392919061116e565b6102766102713660046111c9565b610d84565b60405161010d91906111eb565b61012961029136600461122f565b610df0565b60648260ff1611156102e65760405162461bcd60e51b8152602060048201526014602482015273496e76616c6964206865616c74682073636f726560601b60448201526064015b60405180910390fd5b60008260ff16116103395760405162461bcd60e51b815260206004820152601d60248201527f4865616c74682073636f7265206d75737420626520706f73697469766500000060448201526064016102dd565b60008161ffff161161038d5760405162461bcd60e51b815260206004820152601f60248201527f47656e65746963206d61726b6572206d75737420626520706f7369746976650060448201526064016102dd565b60018054600081815260036020526040902081815591820180546001600160a01b03191633179055906002016103c386826112ef565b506000818152600360208190526040909120016103e085826112ef565b5060008181526003602090815260408083206004908101805460ff891662ffffff199091161761010061ffff8916021764ffff0000001916640101000000179055338085529083528184208054600181018255908552929093209091018390555182907f3c0aadacdb910e58fe38928aad07e1b89dc0baee588d7ca1e9bba80e1e3f3964906104709089906113af565b60405180910390a360018054906000610488836113d8565b91905055505050505050565b60008281526003602052604081206004015483906301000000900460ff166104ce5760405162461bcd60e51b81526004016102dd906113f1565b60008381526003602052604090206004015483906301000000900460ff166105085760405162461bcd60e51b81526004016102dd906113f1565b8385036105575760405162461bcd60e51b815260206004820152601c60248201527f43616e6e6f74206d6174636820706574207769746820697473656c660000000060448201526064016102dd565b600085815260036020526040902060040154640100000000900460ff166105b65760405162461bcd60e51b81526020600482015260136024820152725065742031206e6f7420617661696c61626c6560681b60448201526064016102dd565b600084815260036020526040902060040154640100000000900460ff166106155760405162461bcd60e51b81526020600482015260136024820152725065742032206e6f7420617661696c61626c6560681b60448201526064016102dd565b6000858152600360205260409020600101546001600160a01b031633148061065657506000848152600360205260409020600101546001600160a01b031633145b6106a25760405162461bcd60e51b815260206004820152601860248201527f4d757374206f776e206f6e65206f66207468652070657473000000000000000060448201526064016102dd565b600084815260036020526040808220600490810154888452918320015460ff9182169116116107005760008681526003602052604080822060049081015488845291909220909101546106fb9160ff908116911661141d565b610730565b60008581526003602052604080822060049081015489845291909220909101546107309160ff908116911661141d565b601460ff9091161115935050505092915050565b6000546001600160a01b0316331461078f5760405162461bcd60e51b815260206004820152600e60248201526d139bdd08185d5d1a1bdc9a5e995960921b60448201526064016102dd565b600080546040516001600160a01b03909116914780156108fc02929091818181858888f193505050501580156107c9573d6000803e3d6000fd5b50565b6000818152600360205260408120600401546060918291819085906301000000900460ff1661080d5760405162461bcd60e51b81526004016102dd906113f1565b60008681526003602081905260409091206001810154600482015460028301805493949093908501926001600160a01b031691640100000000900460ff1690849061085790611264565b80601f016020809104026020016040519081016040528092919081815260200182805461088390611264565b80156108d05780601f106108a5576101008083540402835291602001916108d0565b820191906000526020600020905b8154815290600101906020018083116108b357829003601f168201915b505050505093508280546108e390611264565b80601f016020809104026020016040519081016040528092919081815260200182805461090f90611264565b801561095c5780601f106109315761010080835404028352916020019161095c565b820191906000526020600020905b81548152906001019060200180831161093f57829003601f168201915b50505050509250955095509550955050509193509193565b600060018054610984919061143c565b905090565b600560205281600052604060002081815481106109a557600080fd5b60009182526020909120600490910201805460018201546002830154600390930154919450925060ff9091169084565b600460205281600052604060002081815481106109f157600080fd5b90600052602060002001600091509150505481565b6000546001600160a01b03163314610a515760405162461bcd60e51b815260206004820152600e60248201526d139bdd08185d5d1a1bdc9a5e995960921b60448201526064016102dd565b600255565b60036020526000908152604090208054600182015460028301805492936001600160a01b0390921692610a8890611264565b80601f0160208091040260200160405190810160405280929190818152602001828054610ab490611264565b8015610b015780601f10610ad657610100808354040283529160200191610b01565b820191906000526020600020905b815481529060010190602001808311610ae457829003601f168201915b505050505090806003018054610b1690611264565b80601f0160208091040260200160405190810160405280929190818152602001828054610b4290611264565b8015610b8f5780601f10610b6457610100808354040283529160200191610b8f565b820191906000526020600020905b815481529060010190602001808311610b7257829003601f168201915b5050506004909301549192505060ff8082169161ffff610100820416916301000000820481169164010000000090041688565b600081815260036020526040812060040154606091829181908190819087906301000000900460ff16610c075760405162461bcd60e51b81526004016102dd906113f1565b60008881526003602081905260409091206001810154600482015460028301805493949093908501926001600160a01b03169160ff64010000000082048116929082169161ffff61010090910416908690610c6190611264565b80601f0160208091040260200160405190810160405280929190818152602001828054610c8d90611264565b8015610cda5780601f10610caf57610100808354040283529160200191610cda565b820191906000526020600020905b815481529060010190602001808311610cbd57829003601f168201915b50505050509550848054610ced90611264565b80601f0160208091040260200160405190810160405280929190818152602001828054610d1990611264565b8015610d665780601f10610d3b57610100808354040283529160200191610d66565b820191906000526020600020905b815481529060010190602001808311610d4957829003601f168201915b50505050509450975097509750975097509750505091939550919395565b6001600160a01b038116600090815260046020908152604091829020805483518184028101840190945280845260609392830182828015610de457602002820191906000526020600020905b815481526020019060010190808311610dd0575b50505050509050919050565b60008281526003602052604090206001015482906001600160a01b03163314610e4b5760405162461bcd60e51b815260206004820152600d60248201526c2737ba103832ba1037bbb732b960991b60448201526064016102dd565b60008381526003602052604090206004015483906301000000900460ff16610e855760405162461bcd60e51b81526004016102dd906113f1565b505060009182526003602052604090912060040180549115156401000000000264ff0000000019909216919091179055565b634e487b7160e01b600052604160045260246000fd5b600082601f830112610ede57600080fd5b813567ffffffffffffffff80821115610ef957610ef9610eb7565b604051601f8301601f19908116603f01168101908282118183101715610f2157610f21610eb7565b81604052838152866020858801011115610f3a57600080fd5b836020870160208301376000602085830101528094505050505092915050565b60008060008060808587031215610f7057600080fd5b843567ffffffffffffffff80821115610f8857600080fd5b610f9488838901610ecd565b95506020870135915080821115610faa57600080fd5b50610fb787828801610ecd565b935050604085013560ff81168114610fce57600080fd5b9150606085013561ffff81168114610fe557600080fd5b939692955090935050565b6000806040838503121561100357600080fd5b50508035926020909101359150565b60006020828403121561102457600080fd5b5035919050565b6000815180845260005b8181101561105157602081850181015186830182015201611035565b506000602082860101526020601f19601f83011685010191505092915050565b608081526000611084608083018761102b565b8281036020840152611096818761102b565b6001600160a01b03959095166040840152505090151560609091015292915050565b80356001600160a01b03811681146110cf57600080fd5b919050565b600080604083850312156110e757600080fd5b6110f0836110b8565b946020939093013593505050565b8881526001600160a01b0388166020820152610100604082018190526000906111298382018a61102b565b9050828103606084015261113d818961102b565b60ff979097166080840152505061ffff9390931660a084015290151560c0830152151560e090910152949350505050565b60c08152600061118160c083018961102b565b8281036020840152611193818961102b565b6001600160a01b039790971660408401525050921515606084015260ff91909116608083015261ffff1660a09091015292915050565b6000602082840312156111db57600080fd5b6111e4826110b8565b9392505050565b6020808252825182820181905260009190848201906040850190845b8181101561122357835183529284019291840191600101611207565b50909695505050505050565b6000806040838503121561124257600080fd5b823591506020830135801515811461125957600080fd5b809150509250929050565b600181811c9082168061127857607f821691505b60208210810361129857634e487b7160e01b600052602260045260246000fd5b50919050565b601f8211156112ea576000816000526020600020601f850160051c810160208610156112c75750805b601f850160051c820191505b818110156112e6578281556001016112d3565b5050505b505050565b815167ffffffffffffffff81111561130957611309610eb7565b61131d816113178454611264565b8461129e565b602080601f831160018114611352576000841561133a5750858301515b600019600386901b1c1916600185901b1785556112e6565b600085815260208120601f198616915b8281101561138157888601518255948401946001909101908401611362565b508582101561139f5787850151600019600388901b60f8161c191681555b5050505050600190811b01905550565b6020815260006111e4602083018461102b565b634e487b7160e01b600052601160045260246000fd5b6000600182016113ea576113ea6113c2565b5060010190565b60208082526012908201527114195d081b9bdd081c9959da5cdd195c995960721b604082015260600190565b60ff8281168282160390811115611436576114366113c2565b92915050565b81810381811115611436576114366113c256fea26469706673582212200a1849650c8ef208cd69a0b8cb2d122096b810e6738ff1dfad5cad11615bff2c64736f6c63430008180033",
  "linkReferences": {},
  "deployedLinkReferences": {}
}