{
  "_format": "hh-sol-artifact-1",
  "contractName": "PetDNAMatching",
  "sourceName": "contracts/PetDNAMatching.sol",
  "abi": [
    {
      "inputs": [],
      "stateMutability": "nonpayable",
      "type": "constructor"
    },
    {
      "inputs": [],
      "name": "HandlesAlreadySavedForRequestID",
      "type": "error"
    },
    {
      "anonymous": false,
      "inputs": [
        {
          "indexed": true,
          "internalType": "uint256",
          "name": "petId",
          "type": "uint256"
        },
        {
          "indexed": false,
          "internalType": "bool",
          "name": "available",
          "type": "bool"
        }
      ],
      "name": "BreedingStatusChanged",
      "type": "event"
    },
    {
      "anonymous": false,
      "inputs": [
        {
          "indexed": true,
          "internalType": "uint256",
          "name": "petId1",
          "type": "uint256"
        },
        {
          "indexed": true,
          "internalType": "uint256",
          "name": "petId2",
          "type": "uint256"
        },
        {
          "indexed": false,
          "internalType": "uint8",
          "name": "compatibilityScore",
          "type": "uint8"
        }
      ],
      "name": "MatchingCompleted",
      "type": "event"
    },
    {
      "anonymous": false,
      "inputs": [
        {
          "indexed": true,
          "internalType": "uint256",
          "name": "petId",
          "type": "uint256"
        },
        {
          "indexed": true,
          "internalType": "address",
          "name": "owner",
          "type": "address"
        }
      ],
      "name": "MatchingProfileCreated",
      "type": "event"
    },
    {
      "anonymous": false,
      "inputs": [
        {
          "indexed": true,
          "internalType": "uint256",
          "name": "petId1",
          "type": "uint256"
        },
        {
          "indexed": true,
          "internalType": "uint256",
          "name": "petId2",
          "type": "uint256"
        },
        {
          "indexed": false,
          "internalType": "uint256",
          "name": "requestId",
          "type": "uint256"
        }
      ],
      "name": "MatchingRequested",
      "type": "event"
    },
    {
      "anonymous": false,
      "inputs": [
        {
          "indexed": true,
          "internalType": "uint256",
          "name": "petId",
          "type": "uint256"
        },
        {
          "indexed": true,
          "internalType": "address",
          "name": "owner",
          "type": "address"
        },
        {
          "indexed": false,
          "internalType": "string",
          "name": "name",
          "type": "string"
        }
      ],
      "name": "PetRegistered",
      "type": "event"
    },
    {
      "inputs": [
        {
          "internalType": "uint256",
          "name": "_petId",
          "type": "uint256"
        },
        {
          "internalType": "uint8",
          "name": "_minHealthScore",
          "type": "uint8"
        },
        {
          "internalType": "uint8",
          "name": "_temperamentPreference",
          "type": "uint8"
        },
        {
          "internalType": "uint256",
          "name": "_maxAge",
          "type": "uint256"
        }
      ],
      "name": "createMatchingProfile",
      "outputs": [],
      "stateMutability": "nonpayable",
      "type": "function"
    },
    {
      "inputs": [
        {
          "internalType": "address",
          "name": "_owner",
          "type": "address"
        }
      ],
      "name": "getOwnerPets",
      "outputs": [
        {
          "internalType": "uint256[]",
          "name": "",
          "type": "uint256[]"
        }
      ],
      "stateMutability": "view",
      "type": "function"
    },
    {
      "inputs": [
        {
          "internalType": "uint256",
          "name": "_petId",
          "type": "uint256"
        }
      ],
      "name": "getPetInfo",
      "outputs": [
        {
          "internalType": "string",
          "name": "name",
          "type": "string"
        },
        {
          "internalType": "string",
          "name": "species",
          "type": "string"
        },
        {
          "internalType": "string",
          "name": "breed",
          "type": "string"
        },
        {
          "internalType": "uint256",
          "name": "birthYear",
          "type": "uint256"
        },
        {
          "internalType": "address",
          "name": "petOwner",
          "type": "address"
        },
        {
          "internalType": "bool",
          "name": "availableForBreeding",
          "type": "bool"
        }
      ],
      "stateMutability": "view",
      "type": "function"
    },
    {
      "inputs": [
        {
          "internalType": "uint256",
          "name": "_petId",
          "type": "uint256"
        }
      ],
      "name": "getPetMatches",
      "outputs": [
        {
          "components": [
            {
              "internalType": "uint256",
              "name": "requestId",
              "type": "uint256"
            },
            {
              "internalType": "uint256",
              "name": "petId1",
              "type": "uint256"
            },
            {
              "internalType": "uint256",
              "name": "petId2",
              "type": "uint256"
            },
            {
              "internalType": "uint8",
              "name": "compatibilityScore",
              "type": "uint8"
            },
            {
              "internalType": "bool",
              "name": "isMatched",
              "type": "bool"
            },
            {
              "internalType": "uint256",
              "name": "matchTime",
              "type": "uint256"
            }
          ],
          "internalType": "struct PetDNAMatching.MatchResult[]",
          "name": "",
          "type": "tuple[]"
        }
      ],
      "stateMutability": "view",
      "type": "function"
    },
    {
      "inputs": [],
      "name": "getTotalPets",
      "outputs": [
        {
          "internalType": "uint256",
          "name": "",
          "type": "uint256"
        }
      ],
      "stateMutability": "view",
      "type": "function"
    },
    {
      "inputs": [],
      "name": "matchingCost",
      "outputs": [
        {
          "internalType": "uint256",
          "name": "",
          "type": "uint256"
        }
      ],
      "stateMutability": "view",
      "type": "function"
    },
    {
      "inputs": [
        {
          "internalType": "uint256",
          "name": "",
          "type": "uint256"
        }
      ],
      "name": "matchingProfiles",
      "outputs": [
        {
          "internalType": "uint256",
          "name": "petId",
          "type": "uint256"
        },
        {
          "internalType": "euint8",
          "name": "minHealthScore",
          "type": "bytes32"
        },
        {
          "internalType": "euint8",
          "name": "temperamentPreference",
          "type": "bytes32"
        },
        {
          "internalType": "uint256",
          "name": "maxAge",
          "type": "uint256"
        },
        {
          "internalType": "bool",
          "name": "isActive",
          "type": "bool"
        },
        {
          "internalType": "uint256",
          "name": "createdTime",
          "type": "uint256"
        }
      ],
      "stateMutability": "view",
      "type": "function"
    },
    {
      "inputs": [],
      "name": "nextPetId",
      "outputs": [
        {
          "internalType": "uint256",
          "name": "",
          "type": "uint256"
        }
      ],
      "stateMutability": "view",
      "type": "function"
    },
    {
      "inputs": [],
      "name": "owner",
      "outputs": [
        {
          "internalType": "address",
          "name": "",
          "type": "address"
        }
      ],
      "stateMutability": "view",
      "type": "function"
    },
    {
      "inputs": [
        {
          "internalType": "address",
          "name": "",
          "type": "address"
        },
        {
          "internalType": "uint256",
          "name": "",
          "type": "uint256"
        }
      ],
      "name": "ownerToPets",
      "outputs": [
        {
          "internalType": "uint256",
          "name": "",
          "type": "uint256"
        }
      ],
      "stateMutability": "view",
      "type": "function"
    },
    {
      "inputs": [
        {
          "internalType": "uint256",
          "name": "",
          "type": "uint256"
        },
        {
          "internalType": "uint256",
          "name": "",
          "type": "uint256"
        }
      ],
      "name": "petMatches",
      "outputs": [
        {
          "internalType": "uint256",
          "name": "requestId",
          "type": "uint256"
        },
        {
          "internalType": "uint256",
          "name": "petId1",
          "type": "uint256"
        },
        {
          "internalType": "uint256",
          "name": "petId2",
          "type": "uint256"
        },
        {
          "internalType": "uint8",
          "name": "compatibilityScore",
          "type": "uint8"
        },
        {
          "internalType": "bool",
          "name": "isMatched",
          "type": "bool"
        },
        {
          "internalType": "uint256",
          "name": "matchTime",
          "type": "uint256"
        }
      ],
      "stateMutability": "view",
      "type": "function"
    },
    {
      "inputs": [
        {
          "internalType": "uint256",
          "name": "",
          "type": "uint256"
        }
      ],
      "name": "pets",
      "outputs": [
        {
          "internalType": "uint256",
          "name": "id",
          "type": "uint256"
        },
        {
          "internalType": "address",
          "name": "owner",
          "type": "address"
        },
        {
          "internalType": "string",
          "name": "name",
          "type": "string"
        },
        {
          "internalType": "string",
          "name": "species",
          "type": "string"
        },
        {
          "internalType": "string",
          "name": "breed",
          "type": "string"
        },
        {
          "internalType": "uint256",
          "name": "birthYear",
          "type": "uint256"
        },
        {
          "internalType": "euint8",
          "name": "healthScore",
          "type": "bytes32"
        },
        {
          "internalType": "euint16",
          "name": "geneticMarker1",
          "type": "bytes32"
        },
        {
          "internalType": "euint16",
          "name": "geneticMarker2",
          "type": "bytes32"
        },
        {
          "internalType": "euint16",
          "name": "geneticMarker3",
          "type": "bytes32"
        },
        {
          "internalType": "euint8",
          "name": "temperament",
          "type": "bytes32"
        },
        {
          "internalType": "bool",
          "name": "isRegistered",
          "type": "bool"
        },
        {
          "internalType": "bool",
          "name": "availableForBreeding",
          "type": "bool"
        },
        {
          "internalType": "uint256",
          "name": "registrationTime",
          "type": "uint256"
        }
      ],
      "stateMutability": "view",
      "type": "function"
    },
    {
      "inputs": [
        {
          "internalType": "uint256",
          "name": "requestId",
          "type": "uint256"
        },
        {
          "internalType": "uint8",
          "name": "healthSum",
          "type": "uint8"
        },
        {
          "internalType": "uint8",
          "name": "temperamentDiff",
          "type": "uint8"
        },
        {
          "internalType": "bytes[]",
          "name": "signatures",
          "type": "bytes[]"
        }
      ],
      "name": "processMatchingResult",
      "outputs": [],
      "stateMutability": "nonpayable",
      "type": "function"
    },
    {
      "inputs": [
        {
          "internalType": "string",
          "name": "_name",
          "type": "string"
        },
        {
          "internalType": "string",
          "name": "_species",
          "type": "string"
        },
        {
          "internalType": "string",
          "name": "_breed",
          "type": "string"
        },
        {
          "internalType": "uint256",
          "name": "_birthYear",
          "type": "uint256"
        },
        {
          "internalType": "uint8",
          "name": "_healthScore",
          "type": "uint8"
        },
        {
          "internalType": "uint16",
          "name": "_geneticMarker1",
          "type": "uint16"
        },
        {
          "internalType": "uint16",
          "name": "_geneticMarker2",
          "type": "uint16"
        },
        {
          "internalType": "uint16",
          "name": "_geneticMarker3",
          "type": "uint16"
        },
        {
          "internalType": "uint8",
          "name": "_temperament",
          "type": "uint8"
        }
      ],
      "name": "registerPet",
      "outputs": [],
      "stateMutability": "nonpayable",
      "type": "function"
    },
    {
      "inputs": [
        {
          "internalType": "uint256",
          "name": "_petId1",
          "type": "uint256"
        },
        {
          "internalType": "uint256",
          "name": "_petId2",
          "type": "uint256"
        }
      ],
      "name": "requestMatching",
      "outputs": [],
      "stateMutability": "payable",
      "type": "function"
    },
    {
      "inputs": [
        {
          "internalType": "uint256",
          "name": "_petId",
          "type": "uint256"
        },
        {
          "internalType": "bool",
          "name": "_available",
          "type": "bool"
        }
      ],
      "name": "setBreedingStatus",
      "outputs": [],
      "stateMutability": "nonpayable",
      "type": "function"
    },
    {
      "inputs": [
        {
          "internalType": "uint256",
          "name": "_newCost",
          "type": "uint256"
        }
      ],
      "name": "setMatchingCost",
      "outputs": [],
      "stateMutability": "nonpayable",
      "type": "function"
    },
    {
      "inputs": [],
      "name": "withdraw",
      "outputs": [],
      "stateMutability": "nonpayable",
      "type": "function"
    }
  ],
  "bytecode": "0x608060405266038d7ea4c6800060025534801561001b57600080fd5b50600080546001600160a01b03191633179055600180805560085561262e806100456000396000f3fe6080604052600436106101095760003560e01c806380f03fa611610095578063c464335811610064578063c46433581461035a578063c5feea2d1461037a578063cfb869bf1461039a578063d94e8ae2146103d4578063e0f3270e1461040157600080fd5b806380f03fa61461029b578063828cd8b1146102b05780638da5cb5b146103025780639e0a1b7f1461033a57600080fd5b8063403f8cc7116100dc578063403f8cc7146101e6578063558565b2146101fc578063625ff57b1461022957806369c3f31614610249578063793cb79c1461027b57600080fd5b806310e1f74f1461010e57806313099c5c146101985780633c40406c146101bc5780633ccfd60b146101d1575b600080fd5b34801561011a57600080fd5b50610164610129366004611d1e565b600560208190526000918252604090912080546001820154600283015460038401546004850154949095015492949193909260ff9091169086565b6040805196875260208701959095529385019290925260608401521515608083015260a082015260c0015b60405180910390f35b3480156101a457600080fd5b506101ae60025481565b60405190815260200161018f565b6101cf6101ca366004611d37565b610421565b005b3480156101dd57600080fd5b506101cf6107d5565b3480156101f257600080fd5b506101ae60015481565b34801561020857600080fd5b5061021c610217366004611d1e565b61085d565b60405161018f9190611d59565b34801561023557600080fd5b506101cf610244366004611ebd565b61090e565b34801561025557600080fd5b50610269610264366004611d1e565b610bd4565b60405161018f96959493929190611fe9565b34801561028757600080fd5b506101cf61029636600461204c565b610e20565b3480156102a757600080fd5b506101ae611041565b3480156102bc57600080fd5b506102d06102cb366004611d37565b611056565b6040805196875260208701959095529385019290925260ff1660608401521515608083015260a082015260c00161018f565b34801561030e57600080fd5b50600054610322906001600160a01b031681565b6040516001600160a01b03909116815260200161018f565b34801561034657600080fd5b506101ae610355366004612168565b6110b1565b34801561036657600080fd5b506101cf610375366004611d1e565b6110e2565b34801561038657600080fd5b506101cf610395366004612192565b611132565b3480156103a657600080fd5b506103ba6103b5366004611d1e565b61138f565b60405161018f9e9d9c9b9a999897969594939291906121d6565b3480156103e057600080fd5b506103f46103ef36600461227d565b6115a0565b60405161018f9190612298565b34801561040d57600080fd5b506101cf61041c3660046122dc565b61160c565b6000828152600360205260409020600b0154829060ff1661045d5760405162461bcd60e51b815260040161045490612311565b60405180910390fd5b6000828152600360205260409020600b0154829060ff166104905760405162461bcd60e51b815260040161045490612311565b6002543410156104d95760405162461bcd60e51b8152602060048201526014602482015273125b9cdd59999a58da595b9d081c185e5b595b9d60621b6044820152606401610454565b8284036105285760405162461bcd60e51b815260206004820152601c60248201527f43616e6e6f74206d6174636820706574207769746820697473656c66000000006044820152606401610454565b6000848152600360205260409020600b0154610100900460ff1661058e5760405162461bcd60e51b815260206004820181905260248201527f5065742031206e6f7420617661696c61626c6520666f72206272656564696e676044820152606401610454565b6000838152600360205260409020600b0154610100900460ff166105f45760405162461bcd60e51b815260206004820181905260248201527f5065742032206e6f7420617661696c61626c6520666f72206272656564696e676044820152606401610454565b6000848152600360205260409020600101546001600160a01b031633148061063557506000838152600360205260409020600101546001600160a01b031633145b6106815760405162461bcd60e51b815260206004820152601860248201527f4d757374206f776e206f6e65206f6620746865207065747300000000000000006044820152606401610454565b60408051600280825260608201835260009260208301908036833750505060008681526003602052604080822060069081015488845291909220909101549192506106d3916106d09190611702565b90565b816000815181106106e6576106e661233d565b60200260200101818152505061072b6106d060036000888152602001908152602001600020600a015460036000888152602001908152602001600020600a015461173d565b8160018151811061073e5761073e61233d565b602090810291909101015261075a81631e4f2de760e21b61176f565b506008805460008181526007602052604090819020608089901b88179055915491519091869188917fb5d1b24160d14cc3246c9149be476010d84d63dc7ca95f424fd5f7790ee4984b916107b091815260200190565b60405180910390a3600880549060006107c883612369565b9190505550505050505050565b6000546001600160a01b031633146108205760405162461bcd60e51b815260206004820152600e60248201526d139bdd08185d5d1a1bdc9a5e995960921b6044820152606401610454565b600080546040516001600160a01b03909116914780156108fc02929091818181858888f1935050505015801561085a573d6000803e3d6000fd5b50565b606060066000838152602001908152602001600020805480602002602001604051908101604052809291908181526020016000905b828210156109035760008481526020908190206040805160c081018252600586029092018054835260018082015484860152600282015492840192909252600381015460ff808216606086015261010090910416151560808401526004015460a08301529083529092019101610892565b505050509050919050565b60648560ff1611156109595760405162461bcd60e51b8152602060048201526014602482015273496e76616c6964206865616c74682073636f726560601b6044820152606401610454565b600a8160ff1611156109ad5760405162461bcd60e51b815260206004820152601960248201527f496e76616c69642074656d706572616d656e742073636f7265000000000000006044820152606401610454565b6107e886111580156109c157506107d08610155b610a025760405162461bcd60e51b815260206004820152601260248201527124b73b30b634b2103134b93a34103cb2b0b960711b6044820152606401610454565b60018054600081815260036020526040902081815591820180546001600160a01b031916331790559060028101610a398c8261240d565b5060038101610a488b8261240d565b5060048101610a578a8261240d565b5060058101889055600b8101805461ffff191661010117905542600c820155610a7f8761177d565b6006820155610a8d8661178d565b6007820155610a9b8561178d565b6008820155610aa98461178d565b6009820155610ab78361177d565b600a820155336000908152600460209081526040822080546001810182559083529120018290556006810154610aec9061179e565b50610afa816007015461179e565b50610b08816008015461179e565b50610b16816009015461179e565b50610b2481600a015461179e565b50610b338160060154336117ae565b50610b428160070154336117ae565b50610b518160080154336117ae565b50610b608160090154336117ae565b50610b6f81600a0154336117ae565b50336001600160a01b0316827f3c0aadacdb910e58fe38928aad07e1b89dc0baee588d7ca1e9bba80e1e3f39648d604051610baa91906124cd565b60405180910390a360018054906000610bc283612369565b91905055505050505050505050505050565b6000818152600360205260408120600b0154606091829182919081908190879060ff16610c135760405162461bcd60e51b815260040161045490612311565b6000600360008a8152602001908152602001600020905080600201816003018260040183600501548460010160009054906101000a90046001600160a01b031685600b0160019054906101000a900460ff16858054610c7190612382565b80601f0160208091040260200160405190810160405280929190818152602001828054610c9d90612382565b8015610cea5780601f10610cbf57610100808354040283529160200191610cea565b820191906000526020600020905b815481529060010190602001808311610ccd57829003601f168201915b50505050509550848054610cfd90612382565b80601f0160208091040260200160405190810160405280929190818152602001828054610d2990612382565b8015610d765780601f10610d4b57610100808354040283529160200191610d76565b820191906000526020600020905b815481529060010190602001808311610d5957829003601f168201915b50505050509450838054610d8990612382565b80601f0160208091040260200160405190810160405280929190818152602001828054610db590612382565b8015610e025780601f10610dd757610100808354040283529160200191610e02565b820191906000526020600020905b815481529060010190602001808311610de557829003601f168201915b50505050509350975097509750975097509750505091939550919395565b60008481526007602052604081205490608082901c906fffffffffffffffffffffffffffffffff831690610e5487876117c1565b905060006040518060c001604052808a81526020018581526020018481526020018360ff16815260200160468460ff161015151581526020014281525090506006600085815260200190815260200160002081908060018154018082558091505060019003906000526020600020906005020160009091909190915060008201518160000155602082015181600101556040820151816002015560608201518160030160006101000a81548160ff021916908360ff16021790555060808201518160030160016101000a81548160ff02191690831515021790555060a0820151816004015550506006600084815260200190815260200160002081908060018154018082558091505060019003906000526020600020906005020160009091909190915060008201518160000155602082015181600101556040820151816002015560608201518160030160006101000a81548160ff021916908360ff16021790555060808201518160030160016101000a81548160ff02191690831515021790555060a08201518160040155505082847fe4ea5649ac4d25ae9423113decd7aebf8e060eeb358a765e356a47ebd672a9878460405161101d919060ff91909116815260200190565b60405180910390a35050506000958652505060076020525050604082209190915550565b60006001805461105191906124e0565b905090565b6006602052816000526040600020818154811061107257600080fd5b6000918252602090912060059091020180546001820154600283015460038401546004909401549295509093509160ff80821692610100909204169086565b600460205281600052604060002081815481106110cd57600080fd5b90600052602060002001600091509150505481565b6000546001600160a01b0316331461112d5760405162461bcd60e51b815260206004820152600e60248201526d139bdd08185d5d1a1bdc9a5e995960921b6044820152606401610454565b600255565b60008481526003602052604090206001015484906001600160a01b0316331461118d5760405162461bcd60e51b815260206004820152600d60248201526c2737ba103832ba1037bbb732b960991b6044820152606401610454565b6000858152600360205260409020600b0154859060ff166111c05760405162461bcd60e51b815260040161045490612311565b60648560ff1611156112145760405162461bcd60e51b815260206004820152601860248201527f496e76616c6964206d696e206865616c74682073636f726500000000000000006044820152606401610454565b600a8460ff1611156112685760405162461bcd60e51b815260206004820152601e60248201527f496e76616c69642074656d706572616d656e7420707265666572656e636500006044820152606401610454565b6040518060c001604052808781526020016112828761177d565b81526020016112908661177d565b81526020808201869052600160408084018290524260609485015260008b81526005808552908290208651815593860151928401839055908501516002840155928401516003830155608084015160048301805460ff191691151591909117905560a0909301519101556113039061179e565b5060008681526005602052604090206002015461131f9061179e565b5060008681526005602052604090206001015461133c90336117ae565b5060008681526005602052604090206002015461135990336117ae565b50604051339087907f61830eee224d15b80235fa862fe450be39b5434bf376e16ff21ac6eca4a00dd590600090a3505050505050565b60036020526000908152604090208054600182015460028301805492936001600160a01b03909216926113c190612382565b80601f01602080910402602001604051908101604052809291908181526020018280546113ed90612382565b801561143a5780601f1061140f5761010080835404028352916020019161143a565b820191906000526020600020905b81548152906001019060200180831161141d57829003601f168201915b50505050509080600301805461144f90612382565b80601f016020809104026020016040519081016040528092919081815260200182805461147b90612382565b80156114c85780601f1061149d576101008083540402835291602001916114c8565b820191906000526020600020905b8154815290600101906020018083116114ab57829003601f168201915b5050505050908060040180546114dd90612382565b80601f016020809104026020016040519081016040528092919081815260200182805461150990612382565b80156115565780601f1061152b57610100808354040283529160200191611556565b820191906000526020600020905b81548152906001019060200180831161153957829003601f168201915b50505060058401546006850154600786015460088701546009880154600a890154600b8a0154600c909a0154989995989497509295509093909260ff80831692610100900416908e565b6001600160a01b03811660009081526004602090815260409182902080548351818402810184019094528084526060939283018282801561160057602002820191906000526020600020905b8154815260200190600101908083116115ec575b50505050509050919050565b60008281526003602052604090206001015482906001600160a01b031633146116675760405162461bcd60e51b815260206004820152600d60248201526c2737ba103832ba1037bbb732b960991b6044820152606401610454565b6000838152600360205260409020600b0154839060ff1661169a5760405162461bcd60e51b815260040161045490612311565b60008481526003602052604090819020600b0180548515156101000261ff00199091161790555184907fc67d4228515fe50965ecb8849023f34d663800b3578146631aabe1509453df88906116f490861515815260200190565b60405180910390a250505050565b60008261171657611713600061177d565b92505b8161172857611725600061177d565b91505b61173483836000611885565b90505b92915050565b6000826117515761174e600061177d565b92505b8161176357611760600061177d565b91505b6117348383600061195b565b6000611734838360006119e8565b60006117378260ff166002611b0e565b60006117378261ffff166003611b0e565b60006117aa8230611bb5565b5090565b60006117ba8383611bb5565b5090919050565b60008060a060ff8516106117e1576117da6032826124f3565b905061181b565b608c8460ff16106117f7576117da6028826124f3565b60788460ff161061180d576117da601e826124f3565b6118186014826124f3565b90505b60028360ff161161183857611831601e826124f3565b905061185c565b60048360ff161161184e576118316014826124f3565b611859600a826124f3565b90505b6118676014826124f3565b905060648160ff161161187a578061187d565b60645b949350505050565b60008082156118995750600160f81b61189d565b5060005b7f9e7b61f58c47dc699ac88507c4f5bb9f121c03808c5676a8078fe583e46497015460405163022f65e760e31b815260048101879052602481018690526001600160f81b0319831660448201526000805160206125d9833981519152916001600160a01b03169063117b2f38906064015b6020604051808303816000875af115801561192d573d6000803e3d6000fd5b505050506040513d601f19601f82011682018060405250810190611951919061250c565b9695505050505050565b600080821561196f5750600160f81b611973565b5060005b7f9e7b61f58c47dc699ac88507c4f5bb9f121c03808c5676a8078fe583e4649701546040516303056db360e31b815260048101879052602481018690526001600160f81b0319831660448201526000805160206125d9833981519152916001600160a01b03169063182b6d989060640161190e565b7f878245876662ba28a480c5ea71726db859fb50222b0a3d7cbbc21cfa336faf0080546000805160206125d98339815191528054604051637d6e912360e11b81529293926001600160a01b039091169063fadd224690611a4c908990600401612561565b600060405180830381600087803b158015611a6657600080fd5b505af1158015611a7a573d6000803e3d6000fd5b5050506002820154604051633263b83b60e01b81526001600160a01b039091169150633263b83b908690611ab69087908b908b90600401612574565b6000604051808303818588803b158015611acf57600080fd5b505af1158015611ae3573d6000803e3d6000fd5b5050505050611af28387611c32565b8154826000611b0083612369565b919050555050509392505050565b7f9e7b61f58c47dc699ac88507c4f5bb9f121c03808c5676a8078fe583e464970154604051639cd07acb60e01b81526000916000805160206125d9833981519152916001600160a01b0390911690639cd07acb90611b7290879087906004016125a6565b6020604051808303816000875af1158015611b91573d6000803e3d6000fd5b505050506040513d601f19601f8201168201806040525081019061187d919061250c565b60006000805160206125d98339815191528054604051635ca4b5b160e11b8152600481018690526001600160a01b03858116602483015292935091169063b9496b6290604401600060405180830381600087803b158015611c1557600080fd5b505af1158015611c29573d6000803e3d6000fd5b50505050505050565b60008281527f878245876662ba28a480c5ea71726db859fb50222b0a3d7cbbc21cfa336faf0160205260409020547f878245876662ba28a480c5ea71726db859fb50222b0a3d7cbbc21cfa336faf009015611ca057604051633f06d22b60e01b815260040160405180910390fd5b600083815260018201602090815260409091208351611cc192850190611cc7565b50505050565b828054828255906000526020600020908101928215611d02579160200282015b82811115611d02578251825591602001919060010190611ce7565b506117aa9291505b808211156117aa5760008155600101611d0a565b600060208284031215611d3057600080fd5b5035919050565b60008060408385031215611d4a57600080fd5b50508035926020909101359150565b602080825282518282018190526000919060409081850190868401855b82811015611dc9578151805185528681015187860152858101518686015260608082015160ff169086015260808082015115159086015260a0908101519085015260c09093019290850190600101611d76565b5091979650505050505050565b634e487b7160e01b600052604160045260246000fd5b604051601f8201601f1916810167ffffffffffffffff81118282101715611e1557611e15611dd6565b604052919050565b600067ffffffffffffffff831115611e3757611e37611dd6565b611e4a601f8401601f1916602001611dec565b9050828152838383011115611e5e57600080fd5b828260208301376000602084830101529392505050565b600082601f830112611e8657600080fd5b61173483833560208501611e1d565b803560ff81168114611ea657600080fd5b919050565b803561ffff81168114611ea657600080fd5b60008060008060008060008060006101208a8c031215611edc57600080fd5b893567ffffffffffffffff80821115611ef457600080fd5b611f008d838e01611e75565b9a5060208c0135915080821115611f1657600080fd5b611f228d838e01611e75565b995060408c0135915080821115611f3857600080fd5b50611f458c828d01611e75565b97505060608a01359550611f5b60808b01611e95565b9450611f6960a08b01611eab565b9350611f7760c08b01611eab565b9250611f8560e08b01611eab565b9150611f946101008b01611e95565b90509295985092959850929598565b6000815180845260005b81811015611fc957602081850181015186830182015201611fad565b506000602082860101526020601f19601f83011685010191505092915050565b60c081526000611ffc60c0830189611fa3565b828103602084015261200e8189611fa3565b905082810360408401526120228188611fa3565b606084019690965250506001600160a01b03929092166080830152151560a0909101529392505050565b6000806000806080858703121561206257600080fd5b843593506020612073818701611e95565b9350604061208360408801611e95565b9350606087013567ffffffffffffffff808211156120a057600080fd5b818901915089601f8301126120b457600080fd5b8135818111156120c6576120c6611dd6565b8060051b6120d5868201611dec565b918252838101860191868101908d8411156120ef57600080fd5b87860192505b8383101561213f5782358581111561210d5760008081fd5b8601603f81018f1361211f5760008081fd5b61212f8f8a8301358a8401611e1d565b83525091870191908701906120f5565b9a9d999c50979a505050505050505050565b80356001600160a01b0381168114611ea657600080fd5b6000806040838503121561217b57600080fd5b61218483612151565b946020939093013593505050565b600080600080608085870312156121a857600080fd5b843593506121b860208601611e95565b92506121c660408601611e95565b9396929550929360600135925050565b8e81526001600160a01b038e1660208201526101c0604082015260006122006101c083018f611fa3565b8281036060840152612212818f611fa3565b90508281036080840152612226818e611fa3565b9150508a60a08301528960c08301528860e083015287610100830152866101208301528561014083015261225f61016083018615159052565b9215156101808201526101a001529c9b505050505050505050505050565b60006020828403121561228f57600080fd5b61173482612151565b6020808252825182820181905260009190848201906040850190845b818110156122d0578351835292840192918401916001016122b4565b50909695505050505050565b600080604083850312156122ef57600080fd5b823591506020830135801515811461230657600080fd5b809150509250929050565b60208082526012908201527114195d081b9bdd081c9959da5cdd195c995960721b604082015260600190565b634e487b7160e01b600052603260045260246000fd5b634e487b7160e01b600052601160045260246000fd5b60006001820161237b5761237b612353565b5060010190565b600181811c9082168061239657607f821691505b6020821081036123b657634e487b7160e01b600052602260045260246000fd5b50919050565b601f821115612408576000816000526020600020601f850160051c810160208610156123e55750805b601f850160051c820191505b81811015612404578281556001016123f1565b5050505b505050565b815167ffffffffffffffff81111561242757612427611dd6565b61243b816124358454612382565b846123bc565b602080601f83116001811461247057600084156124585750858301515b600019600386901b1c1916600185901b178555612404565b600085815260208120601f198616915b8281101561249f57888601518255948401946001909101908401612480565b50858210156124bd5787850151600019600388901b60f8161c191681555b5050505050600190811b01905550565b6020815260006117346020830184611fa3565b8181038181111561173757611737612353565b60ff818116838216019081111561173757611737612353565b60006020828403121561251e57600080fd5b5051919050565b60008151808452602080850194506020840160005b838110156125565781518752958201959082019060010161253a565b509495945050505050565b6020815260006117346020830184612525565b83815260606020820152600061258d6060830185612525565b905063ffffffff60e01b83166040830152949350505050565b82815260408101605483106125cb57634e487b7160e01b600052602160045260246000fd5b826020830152939250505056fe9e7b61f58c47dc699ac88507c4f5bb9f121c03808c5676a8078fe583e4649700a26469706673582212207577f20284fba4df27264cbe2e2d258edbcf37c821225bb0baa5b7885a2ab8e864736f6c63430008180033",
  "linkReferences": {},
  "deployedLinkReferences": {}
}