{
  "_format": "hh-sol-artifact-1",
  "contractName": "SimplePetDNAMatching",
  "sourceName": "contracts/SimplePetDNAMatching.sol",
  "abi": [
    {
      "inputs": [],
      "stateMutability": "nonpayable",
      "type": "constructor"
    },
    {
      "anonymous": false,
      "inputs": [
        {
          "indexed": true,
          "internalType": "uint256",
          "name": "petId1",
          "type": "uint256"
        },
        {
          "indexed": true,
          "internalType": "uint256",
          "name": "petId2",
          "type": "uint256"
        },
        {
          "indexed": false,
          "internalType": "uint8",
          "name": "compatibilityScore",
          "type": "uint8"
        }
      ],
      "name": "MatchingCompleted",
      "type": "event"
    },
    {
      "anonymous": false,
      "inputs": [
        {
          "indexed": true,
          "internalType": "uint256",
          "name": "petId",
          "type": "uint256"
        },
        {
          "indexed": true,
          "internalType": "address",
          "name": "owner",
          "type": "address"
        },
        {
          "indexed": false,
          "internalType": "string",
          "name": "name",
          "type": "string"
        }
      ],
      "name": "PetRegistered",
      "type": "event"
    },
    {
      "inputs": [
        {
          "internalType": "uint256",
          "name": "_petId1",
          "type": "uint256"
        },
        {
          "internalType": "uint256",
          "name": "_petId2",
          "type": "uint256"
        }
      ],
      "name": "checkCompatibility",
      "outputs": [
        {
          "internalType": "bool",
          "name": "compatible",
          "type": "bool"
        }
      ],
      "stateMutability": "nonpayable",
      "type": "function"
    },
    {
      "inputs": [
        {
          "internalType": "address",
          "name": "_owner",
          "type": "address"
        }
      ],
      "name": "getOwnerPets",
      "outputs": [
        {
          "internalType": "uint256[]",
          "name": "",
          "type": "uint256[]"
        }
      ],
      "stateMutability": "view",
      "type": "function"
    },
    {
      "inputs": [
        {
          "internalType": "uint256",
          "name": "_petId",
          "type": "uint256"
        }
      ],
      "name": "getPetInfo",
      "outputs": [
        {
          "internalType": "string",
          "name": "name",
          "type": "string"
        },
        {
          "internalType": "string",
          "name": "breed",
          "type": "string"
        },
        {
          "internalType": "address",
          "name": "petOwner",
          "type": "address"
        },
        {
          "internalType": "bool",
          "name": "availableForBreeding",
          "type": "bool"
        }
      ],
      "stateMutability": "view",
      "type": "function"
    },
    {
      "inputs": [],
      "name": "getTotalPets",
      "outputs": [
        {
          "internalType": "uint256",
          "name": "",
          "type": "uint256"
        }
      ],
      "stateMutability": "view",
      "type": "function"
    },
    {
      "inputs": [],
      "name": "matchingCost",
      "outputs": [
        {
          "internalType": "uint256",
          "name": "",
          "type": "uint256"
        }
      ],
      "stateMutability": "view",
      "type": "function"
    },
    {
      "inputs": [],
      "name": "nextPetId",
      "outputs": [
        {
          "internalType": "uint256",
          "name": "",
          "type": "uint256"
        }
      ],
      "stateMutability": "view",
      "type": "function"
    },
    {
      "inputs": [],
      "name": "owner",
      "outputs": [
        {
          "internalType": "address",
          "name": "",
          "type": "address"
        }
      ],
      "stateMutability": "view",
      "type": "function"
    },
    {
      "inputs": [
        {
          "internalType": "address",
          "name": "",
          "type": "address"
        },
        {
          "internalType": "uint256",
          "name": "",
          "type": "uint256"
        }
      ],
      "name": "ownerToPets",
      "outputs": [
        {
          "internalType": "uint256",
          "name": "",
          "type": "uint256"
        }
      ],
      "stateMutability": "view",
      "type": "function"
    },
    {
      "inputs": [
        {
          "internalType": "uint256",
          "name": "",
          "type": "uint256"
        },
        {
          "internalType": "uint256",
          "name": "",
          "type": "uint256"
        }
      ],
      "name": "petMatches",
      "outputs": [
        {
          "internalType": "uint256",
          "name": "petId1",
          "type": "uint256"
        },
        {
          "internalType": "uint256",
          "name": "petId2",
          "type": "uint256"
        },
        {
          "internalType": "uint8",
          "name": "compatibilityScore",
          "type": "uint8"
        },
        {
          "internalType": "uint256",
          "name": "matchTime",
          "type": "uint256"
        }
      ],
      "stateMutability": "view",
      "type": "function"
    },
    {
      "inputs": [
        {
          "internalType": "uint256",
          "name": "",
          "type": "uint256"
        }
      ],
      "name": "pets",
      "outputs": [
        {
          "internalType": "uint256",
          "name": "id",
          "type": "uint256"
        },
        {
          "internalType": "address",
          "name": "owner",
          "type": "address"
        },
        {
          "internalType": "string",
          "name": "name",
          "type": "string"
        },
        {
          "internalType": "string",
          "name": "breed",
          "type": "string"
        },
        {
          "internalType": "euint8",
          "name": "healthScore",
          "type": "bytes32"
        },
        {
          "internalType": "euint16",
          "name": "geneticMarker",
          "type": "bytes32"
        },
        {
          "internalType": "bool",
          "name": "isRegistered",
          "type": "bool"
        },
        {
          "internalType": "bool",
          "name": "availableForBreeding",
          "type": "bool"
        }
      ],
      "stateMutability": "view",
      "type": "function"
    },
    {
      "inputs": [
        {
          "internalType": "string",
          "name": "_name",
          "type": "string"
        },
        {
          "internalType": "string",
          "name": "_breed",
          "type": "string"
        },
        {
          "internalType": "uint8",
          "name": "_healthScore",
          "type": "uint8"
        },
        {
          "internalType": "uint16",
          "name": "_geneticMarker",
          "type": "uint16"
        }
      ],
      "name": "registerPet",
      "outputs": [],
      "stateMutability": "nonpayable",
      "type": "function"
    },
    {
      "inputs": [
        {
          "internalType": "uint256",
          "name": "_petId",
          "type": "uint256"
        },
        {
          "internalType": "bool",
          "name": "_available",
          "type": "bool"
        }
      ],
      "name": "setBreedingStatus",
      "outputs": [],
      "stateMutability": "nonpayable",
      "type": "function"
    },
    {
      "inputs": [
        {
          "internalType": "uint256",
          "name": "_newCost",
          "type": "uint256"
        }
      ],
      "name": "setMatchingCost",
      "outputs": [],
      "stateMutability": "nonpayable",
      "type": "function"
    },
    {
      "inputs": [],
      "name": "withdraw",
      "outputs": [],
      "stateMutability": "nonpayable",
      "type": "function"
    }
  ],
  "bytecode": "0x608060405266038d7ea4c6800060025534801561001b57600080fd5b50600080546001600160a01b0319163317905560018055611302806100416000396000f3fe608060405234801561001057600080fd5b50600436106100ea5760003560e01c8063828cd8b11161008c578063c464335811610066578063c4643358146101f9578063cfb869bf1461020c578063d94e8ae214610233578063e0f3270e1461025357600080fd5b8063828cd8b11461017f5780638da5cb5b146101bb5780639e0a1b7f146101e657600080fd5b80633ccfd60b116100c85780633ccfd60b14610143578063403f8cc71461014b57806369c3f3161461015457806380f03fa61461017757600080fd5b806313099c5c146100ef5780632b60b9661461010b5780632ff8718d14610120575b600080fd5b6100f860025481565b6040519081526020015b60405180910390f35b61011e610119366004610e0d565b610266565b005b61013361012e366004610ea3565b61043a565b6040519015158152602001610102565b61011e61063f565b6100f860015481565b610167610162366004610ec5565b6106c7565b6040516101029493929190610f24565b6100f8610865565b61019261018d366004610ea3565b61087a565b6040516101029493929190938452602084019290925260ff166040830152606082015260800190565b6000546101ce906001600160a01b031681565b6040516001600160a01b039091168152602001610102565b6100f86101f4366004610f87565b6108c6565b61011e610207366004610ec5565b6108f7565b61021f61021a366004610ec5565b610947565b604051610102989796959493929190610fb1565b61024661024136600461101a565b610aaa565b604051610102919061103c565b61011e610261366004611080565b610b16565b60648260ff1611156102b65760405162461bcd60e51b8152602060048201526014602482015273496e76616c6964206865616c74682073636f726560601b60448201526064015b60405180910390fd5b60018054600081815260036020526040902081815591820180546001600160a01b03191633179055906002016102ec8682611140565b506000818152600360208190526040909120016103098582611140565b5061031383610bd0565b60008281526003602052604090206004015561032e82610be6565b6000828152600360208181526040808420600581019590955560068501805461ffff191661010117905533845260048083529084208054600181018255908552828520018690559285905252015461038590610bf7565b506000818152600360205260409020600501546103a190610bf7565b506000818152600360205260409020600401546103be9033610c07565b506000818152600360205260409020600501546103db9033610c07565b50336001600160a01b0316817f3c0aadacdb910e58fe38928aad07e1b89dc0baee588d7ca1e9bba80e1e3f3964876040516104169190611200565b60405180910390a36001805490600061042e83611229565b91905055505050505050565b600082815260036020526040812060060154839060ff1661046d5760405162461bcd60e51b81526004016102ad90611242565b600083815260036020526040902060060154839060ff166104a05760405162461bcd60e51b81526004016102ad90611242565b8385036104ef5760405162461bcd60e51b815260206004820152601c60248201527f43616e6e6f74206d6174636820706574207769746820697473656c660000000060448201526064016102ad565b600085815260036020526040902060060154610100900460ff1661054b5760405162461bcd60e51b81526020600482015260136024820152725065742031206e6f7420617661696c61626c6560681b60448201526064016102ad565b600084815260036020526040902060060154610100900460ff166105a75760405162461bcd60e51b81526020600482015260136024820152725065742032206e6f7420617661696c61626c6560681b60448201526064016102ad565b6000858152600360205260409020600101546001600160a01b03163314806105e857506000848152600360205260409020600101546001600160a01b031633145b6106345760405162461bcd60e51b815260206004820152601860248201527f4d757374206f776e206f6e65206f66207468652070657473000000000000000060448201526064016102ad565b506001949350505050565b6000546001600160a01b0316331461068a5760405162461bcd60e51b815260206004820152600e60248201526d139bdd08185d5d1a1bdc9a5e995960921b60448201526064016102ad565b600080546040516001600160a01b03909116914780156108fc02929091818181858888f193505050501580156106c4573d6000803e3d6000fd5b50565b60008181526003602052604081206006015460609182918190859060ff166107015760405162461bcd60e51b81526004016102ad90611242565b60008681526003602081905260409091206001810154600682015460028301805493949093908501926001600160a01b031691610100900460ff16908490610748906110b5565b80601f0160208091040260200160405190810160405280929190818152602001828054610774906110b5565b80156107c15780601f10610796576101008083540402835291602001916107c1565b820191906000526020600020905b8154815290600101906020018083116107a457829003601f168201915b505050505093508280546107d4906110b5565b80601f0160208091040260200160405190810160405280929190818152602001828054610800906110b5565b801561084d5780601f106108225761010080835404028352916020019161084d565b820191906000526020600020905b81548152906001019060200180831161083057829003601f168201915b50505050509250955095509550955050509193509193565b600060018054610875919061126e565b905090565b6005602052816000526040600020818154811061089657600080fd5b60009182526020909120600490910201805460018201546002830154600390930154919450925060ff9091169084565b600460205281600052604060002081815481106108e257600080fd5b90600052602060002001600091509150505481565b6000546001600160a01b031633146109425760405162461bcd60e51b815260206004820152600e60248201526d139bdd08185d5d1a1bdc9a5e995960921b60448201526064016102ad565b600255565b60036020526000908152604090208054600182015460028301805492936001600160a01b0390921692610979906110b5565b80601f01602080910402602001604051908101604052809291908181526020018280546109a5906110b5565b80156109f25780601f106109c7576101008083540402835291602001916109f2565b820191906000526020600020905b8154815290600101906020018083116109d557829003601f168201915b505050505090806003018054610a07906110b5565b80601f0160208091040260200160405190810160405280929190818152602001828054610a33906110b5565b8015610a805780601f10610a5557610100808354040283529160200191610a80565b820191906000526020600020905b815481529060010190602001808311610a6357829003601f168201915b50505050600483015460058401546006909401549293909290915060ff8082169161010090041688565b6001600160a01b038116600090815260046020908152604091829020805483518184028101840190945280845260609392830182828015610b0a57602002820191906000526020600020905b815481526020019060010190808311610af6575b50505050509050919050565b60008281526003602052604090206001015482906001600160a01b03163314610b715760405162461bcd60e51b815260206004820152600d60248201526c2737ba103832ba1037bbb732b960991b60448201526064016102ad565b600083815260036020526040902060060154839060ff16610ba45760405162461bcd60e51b81526004016102ad90611242565b505060009182526003602052604090912060060180549115156101000261ff0019909216919091179055565b6000610be08260ff166002610c1a565b92915050565b6000610be08261ffff166003610c1a565b6000610c038230610cdb565b5090565b6000610c138383610cdb565b5090919050565b7f9e7b61f58c47dc699ac88507c4f5bb9f121c03808c5676a8078fe583e464970154604051639cd07acb60e01b81526000917f9e7b61f58c47dc699ac88507c4f5bb9f121c03808c5676a8078fe583e4649700916001600160a01b0390911690639cd07acb90610c909087908790600401611281565b6020604051808303816000875af1158015610caf573d6000803e3d6000fd5b505050506040513d601f19601f82011682018060405250810190610cd391906112b3565b949350505050565b60007f9e7b61f58c47dc699ac88507c4f5bb9f121c03808c5676a8078fe583e46497008054604051635ca4b5b160e11b8152600481018690526001600160a01b03858116602483015292935091169063b9496b6290604401600060405180830381600087803b158015610d4d57600080fd5b505af1158015610d61573d6000803e3d6000fd5b50505050505050565b634e487b7160e01b600052604160045260246000fd5b600082601f830112610d9157600080fd5b813567ffffffffffffffff80821115610dac57610dac610d6a565b604051601f8301601f19908116603f01168101908282118183101715610dd457610dd4610d6a565b81604052838152866020858801011115610ded57600080fd5b836020870160208301376000602085830101528094505050505092915050565b60008060008060808587031215610e2357600080fd5b843567ffffffffffffffff80821115610e3b57600080fd5b610e4788838901610d80565b95506020870135915080821115610e5d57600080fd5b50610e6a87828801610d80565b935050604085013560ff81168114610e8157600080fd5b9150606085013561ffff81168114610e9857600080fd5b939692955090935050565b60008060408385031215610eb657600080fd5b50508035926020909101359150565b600060208284031215610ed757600080fd5b5035919050565b6000815180845260005b81811015610f0457602081850181015186830182015201610ee8565b506000602082860101526020601f19601f83011685010191505092915050565b608081526000610f376080830187610ede565b8281036020840152610f498187610ede565b6001600160a01b03959095166040840152505090151560609091015292915050565b80356001600160a01b0381168114610f8257600080fd5b919050565b60008060408385031215610f9a57600080fd5b610fa383610f6b565b946020939093013593505050565b8881526001600160a01b038816602082015261010060408201819052600090610fdc8382018a610ede565b90508281036060840152610ff08189610ede565b6080840197909752505060a081019390935290151560c0830152151560e090910152949350505050565b60006020828403121561102c57600080fd5b61103582610f6b565b9392505050565b6020808252825182820181905260009190848201906040850190845b8181101561107457835183529284019291840191600101611058565b50909695505050505050565b6000806040838503121561109357600080fd5b82359150602083013580151581146110aa57600080fd5b809150509250929050565b600181811c908216806110c957607f821691505b6020821081036110e957634e487b7160e01b600052602260045260246000fd5b50919050565b601f82111561113b576000816000526020600020601f850160051c810160208610156111185750805b601f850160051c820191505b8181101561113757828155600101611124565b5050505b505050565b815167ffffffffffffffff81111561115a5761115a610d6a565b61116e8161116884546110b5565b846110ef565b602080601f8311600181146111a3576000841561118b5750858301515b600019600386901b1c1916600185901b178555611137565b600085815260208120601f198616915b828110156111d2578886015182559484019460019091019084016111b3565b50858210156111f05787850151600019600388901b60f8161c191681555b5050505050600190811b01905550565b6020815260006110356020830184610ede565b634e487b7160e01b600052601160045260246000fd5b60006001820161123b5761123b611213565b5060010190565b60208082526012908201527114195d081b9bdd081c9959da5cdd195c995960721b604082015260600190565b81810381811115610be057610be0611213565b82815260408101605483106112a657634e487b7160e01b600052602160045260246000fd5b8260208301529392505050565b6000602082840312156112c557600080fd5b505191905056fea2646970667358221220403378a8ad4499deeadc9f79d690a5d3aaa76dad93c4489b432d75fa1d27652764736f6c63430008180033",
  "linkReferences": {},
  "deployedLinkReferences": {}
}